{
  "contractName": "Store",
  "abi": [
    {
      "inputs": [],
      "stateMutability": "nonpayable",
      "type": "constructor"
    },
    {
      "anonymous": false,
      "inputs": [
        {
          "indexed": true,
          "internalType": "address",
          "name": "owner",
          "type": "address"
        },
        {
          "indexed": true,
          "internalType": "address",
          "name": "spender",
          "type": "address"
        },
        {
          "indexed": false,
          "internalType": "uint256",
          "name": "value",
          "type": "uint256"
        }
      ],
      "name": "Approval",
      "type": "event"
    },
    {
      "anonymous": false,
      "inputs": [
        {
          "indexed": true,
          "internalType": "address",
          "name": "from",
          "type": "address"
        },
        {
          "indexed": true,
          "internalType": "address",
          "name": "to",
          "type": "address"
        },
        {
          "indexed": false,
          "internalType": "uint256",
          "name": "value",
          "type": "uint256"
        }
      ],
      "name": "Transfer",
      "type": "event"
    },
    {
      "anonymous": false,
      "inputs": [
        {
          "indexed": false,
          "internalType": "address",
          "name": "sender",
          "type": "address"
        },
        {
          "indexed": true,
          "internalType": "address",
          "name": "receiver",
          "type": "address"
        },
        {
          "indexed": false,
          "internalType": "uint256",
          "name": "token_out",
          "type": "uint256"
        }
      ],
      "name": "claim",
      "type": "event"
    },
    {
      "anonymous": false,
      "inputs": [
        {
          "indexed": false,
          "internalType": "address",
          "name": "user",
          "type": "address"
        },
        {
          "indexed": false,
          "internalType": "uint256",
          "name": "amount_in",
          "type": "uint256"
        }
      ],
      "name": "deposit",
      "type": "event"
    },
    {
      "anonymous": false,
      "inputs": [
        {
          "indexed": false,
          "internalType": "address",
          "name": "sender",
          "type": "address"
        },
        {
          "indexed": true,
          "internalType": "address",
          "name": "receiver",
          "type": "address"
        },
        {
          "indexed": false,
          "internalType": "uint256",
          "name": "token_out",
          "type": "uint256"
        }
      ],
      "name": "refund",
      "type": "event"
    },
    {
      "inputs": [],
      "name": "ADMIN",
      "outputs": [
        {
          "internalType": "address",
          "name": "",
          "type": "address"
        }
      ],
      "stateMutability": "view",
      "type": "function",
      "constant": true
    },
    {
      "inputs": [],
      "name": "FEE_USE_APP",
      "outputs": [
        {
          "internalType": "uint256",
          "name": "",
          "type": "uint256"
        }
      ],
      "stateMutability": "view",
      "type": "function",
      "constant": true
    },
    {
      "inputs": [],
      "name": "SPACE_TIME_CLAIM",
      "outputs": [
        {
          "internalType": "uint256",
          "name": "",
          "type": "uint256"
        }
      ],
      "stateMutability": "view",
      "type": "function",
      "constant": true
    },
    {
      "inputs": [],
      "name": "SPACE_TIME_REFUND",
      "outputs": [
        {
          "internalType": "uint256",
          "name": "",
          "type": "uint256"
        }
      ],
      "stateMutability": "view",
      "type": "function",
      "constant": true
    },
    {
      "inputs": [],
      "name": "VALUE_SWAP_TOKEN",
      "outputs": [
        {
          "internalType": "uint256",
          "name": "",
          "type": "uint256"
        }
      ],
      "stateMutability": "view",
      "type": "function",
      "constant": true
    },
    {
      "inputs": [
        {
          "internalType": "address",
          "name": "owner",
          "type": "address"
        },
        {
          "internalType": "address",
          "name": "spender",
          "type": "address"
        }
      ],
      "name": "allowance",
      "outputs": [
        {
          "internalType": "uint256",
          "name": "",
          "type": "uint256"
        }
      ],
      "stateMutability": "view",
      "type": "function",
      "constant": true
    },
    {
      "inputs": [
        {
          "internalType": "address",
          "name": "spender",
          "type": "address"
        },
        {
          "internalType": "uint256",
          "name": "amount",
          "type": "uint256"
        }
      ],
      "name": "approve",
      "outputs": [
        {
          "internalType": "bool",
          "name": "",
          "type": "bool"
        }
      ],
      "stateMutability": "nonpayable",
      "type": "function"
    },
    {
      "inputs": [
        {
          "internalType": "address",
          "name": "account",
          "type": "address"
        }
      ],
      "name": "balanceOf",
      "outputs": [
        {
          "internalType": "uint256",
          "name": "",
          "type": "uint256"
        }
      ],
      "stateMutability": "view",
      "type": "function",
      "constant": true
    },
    {
      "inputs": [],
      "name": "decimals",
      "outputs": [
        {
          "internalType": "uint8",
          "name": "",
          "type": "uint8"
        }
      ],
      "stateMutability": "view",
      "type": "function",
      "constant": true
    },
    {
      "inputs": [
        {
          "internalType": "address",
          "name": "spender",
          "type": "address"
        },
        {
          "internalType": "uint256",
          "name": "subtractedValue",
          "type": "uint256"
        }
      ],
      "name": "decreaseAllowance",
      "outputs": [
        {
          "internalType": "bool",
          "name": "",
          "type": "bool"
        }
      ],
      "stateMutability": "nonpayable",
      "type": "function"
    },
    {
      "inputs": [
        {
          "internalType": "address",
          "name": "spender",
          "type": "address"
        },
        {
          "internalType": "uint256",
          "name": "addedValue",
          "type": "uint256"
        }
      ],
      "name": "increaseAllowance",
      "outputs": [
        {
          "internalType": "bool",
          "name": "",
          "type": "bool"
        }
      ],
      "stateMutability": "nonpayable",
      "type": "function"
    },
    {
      "inputs": [
        {
          "internalType": "address",
          "name": "",
          "type": "address"
        }
      ],
      "name": "listBuyerInfor",
      "outputs": [
        {
          "internalType": "uint256",
          "name": "valueInput",
          "type": "uint256"
        },
        {
          "internalType": "uint256",
          "name": "valueOutput",
          "type": "uint256"
        },
        {
          "internalType": "uint256",
          "name": "countTime",
          "type": "uint256"
        },
        {
          "internalType": "uint256",
          "name": "currentTimeDeposit",
          "type": "uint256"
        },
        {
          "internalType": "uint256",
          "name": "currnetTimeClaim",
          "type": "uint256"
        },
        {
          "internalType": "uint256",
          "name": "currentTimeRefund",
          "type": "uint256"
        }
      ],
      "stateMutability": "view",
      "type": "function",
      "constant": true
    },
    {
      "inputs": [],
      "name": "name",
      "outputs": [
        {
          "internalType": "string",
          "name": "",
          "type": "string"
        }
      ],
      "stateMutability": "view",
      "type": "function",
      "constant": true
    },
    {
      "inputs": [],
      "name": "symbol",
      "outputs": [
        {
          "internalType": "string",
          "name": "",
          "type": "string"
        }
      ],
      "stateMutability": "view",
      "type": "function",
      "constant": true
    },
    {
      "inputs": [],
      "name": "totalSupply",
      "outputs": [
        {
          "internalType": "uint256",
          "name": "",
          "type": "uint256"
        }
      ],
      "stateMutability": "view",
      "type": "function",
      "constant": true
    },
    {
      "inputs": [
        {
          "internalType": "address",
          "name": "to",
          "type": "address"
        },
        {
          "internalType": "uint256",
          "name": "amount",
          "type": "uint256"
        }
      ],
      "name": "transfer",
      "outputs": [
        {
          "internalType": "bool",
          "name": "",
          "type": "bool"
        }
      ],
      "stateMutability": "nonpayable",
      "type": "function"
    },
    {
      "inputs": [
        {
          "internalType": "address",
          "name": "from",
          "type": "address"
        },
        {
          "internalType": "address",
          "name": "to",
          "type": "address"
        },
        {
          "internalType": "uint256",
          "name": "amount",
          "type": "uint256"
        }
      ],
      "name": "transferFrom",
      "outputs": [
        {
          "internalType": "bool",
          "name": "",
          "type": "bool"
        }
      ],
      "stateMutability": "nonpayable",
      "type": "function"
    },
    {
      "inputs": [
        {
          "internalType": "uint256",
          "name": "amount_in",
          "type": "uint256"
        }
      ],
      "name": "depositETH",
      "outputs": [],
      "stateMutability": "payable",
      "type": "function",
      "payable": true
    },
    {
      "inputs": [],
      "name": "claimToken",
      "outputs": [],
      "stateMutability": "nonpayable",
      "type": "function"
    },
    {
      "inputs": [],
      "name": "refundEth",
      "outputs": [],
      "stateMutability": "nonpayable",
      "type": "function"
    },
    {
      "inputs": [
        {
          "internalType": "address",
          "name": "_address",
          "type": "address"
        }
      ],
      "name": "getBalance",
      "outputs": [
        {
          "internalType": "uint256",
          "name": "",
          "type": "uint256"
        }
      ],
      "stateMutability": "view",
      "type": "function",
      "constant": true
    },
    {
      "inputs": [],
      "name": "getBuyerInformation",
      "outputs": [
        {
          "components": [
            {
              "internalType": "uint256",
              "name": "valueInput",
              "type": "uint256"
            },
            {
              "internalType": "uint256",
              "name": "valueOutput",
              "type": "uint256"
            },
            {
              "internalType": "uint256",
              "name": "countTime",
              "type": "uint256"
            },
            {
              "internalType": "uint256",
              "name": "currentTimeDeposit",
              "type": "uint256"
            },
            {
              "internalType": "uint256",
              "name": "currnetTimeClaim",
              "type": "uint256"
            },
            {
              "internalType": "uint256",
              "name": "currentTimeRefund",
              "type": "uint256"
            }
          ],
          "internalType": "struct Store.BuyerInfo",
          "name": "",
          "type": "tuple"
        }
      ],
      "stateMutability": "view",
      "type": "function",
      "constant": true
    }
  ],
  "bytecode": "0x6080604052662386f26fc100006005556103e860065560646007556064600855735bd4ecaa08dfa56423c0e83546e979e386003ccc600960006101000a81548173ffffffffffffffffffffffffffffffffffffffff021916908373ffffffffffffffffffffffffffffffffffffffff1602179055503480156200008157600080fd5b506040518060400160405280600b81526020017f546f6b656e4552433230200000000000000000000000000000000000000000008152506040518060400160405280600381526020017f544b45000000000000000000000000000000000000000000000000000000000081525081600390805190602001906200010692919062000375565b5080600490805190602001906200011f92919062000375565b505050600960009054906101000a900473ffffffffffffffffffffffffffffffffffffffff1673ffffffffffffffffffffffffffffffffffffffff163373ffffffffffffffffffffffffffffffffffffffff1614620001b5576040517f08c379a0000000000000000000000000000000000000000000000000000000008152600401620001ac9062000486565b60405180910390fd5b620001ec600960009054906101000a900473ffffffffffffffffffffffffffffffffffffffff16620f4240620001f260201b60201c565b62000643565b600073ffffffffffffffffffffffffffffffffffffffff168273ffffffffffffffffffffffffffffffffffffffff16141562000265576040517f08c379a00000000000000000000000000000000000000000000000000000000081526004016200025c90620004f8565b60405180910390fd5b62000279600083836200036b60201b60201c565b80600260008282546200028d919062000553565b92505081905550806000808473ffffffffffffffffffffffffffffffffffffffff1673ffffffffffffffffffffffffffffffffffffffff1681526020019081526020016000206000828254620002e4919062000553565b925050819055508173ffffffffffffffffffffffffffffffffffffffff16600073ffffffffffffffffffffffffffffffffffffffff167fddf252ad1be2c89b69c2b068fc378daa952ba7f163c4a11628f55a4df523b3ef836040516200034b9190620005c1565b60405180910390a362000367600083836200037060201b60201c565b5050565b505050565b505050565b82805462000383906200060d565b90600052602060002090601f016020900481019282620003a75760008555620003f3565b82601f10620003c257805160ff1916838001178555620003f3565b82800160010185558215620003f3579182015b82811115620003f2578251825591602001919060010190620003d5565b5b50905062000402919062000406565b5090565b5b808211156200042157600081600090555060010162000407565b5090565b600082825260208201905092915050565b7f4f4e4c592041444d494e2043414e20414354494f4e0000000000000000000000600082015250565b60006200046e60158362000425565b91506200047b8262000436565b602082019050919050565b60006020820190508181036000830152620004a1816200045f565b9050919050565b7f45524332303a206d696e7420746f20746865207a65726f206164647265737300600082015250565b6000620004e0601f8362000425565b9150620004ed82620004a8565b602082019050919050565b600060208201905081810360008301526200051381620004d1565b9050919050565b6000819050919050565b7f4e487b7100000000000000000000000000000000000000000000000000000000600052601160045260246000fd5b600062000560826200051a565b91506200056d836200051a565b9250827fffffffffffffffffffffffffffffffffffffffffffffffffffffffffffffffff03821115620005a557620005a462000524565b5b828201905092915050565b620005bb816200051a565b82525050565b6000602082019050620005d86000830184620005b0565b92915050565b7f4e487b7100000000000000000000000000000000000000000000000000000000600052602260045260246000fd5b600060028204905060018216806200062657607f821691505b602082108114156200063d576200063c620005de565b5b50919050565b6120e680620006536000396000f3fe6080604052600436106101355760003560e01c8063581e5ed4116100ab578063970e86641161006f578063970e866414610412578063a457c2d71461043d578063a9059cbb1461047a578063bf029062146104b7578063dd62ed3e146104e2578063f8b2cb4f1461051f57610135565b8063581e5ed414610329578063640d20291461035457806370a082311461037f5780638c9ef161146103bc57806395d89b41146103e757610135565b806323b872dd116100fd57806323b872dd146102265780632a0acc6a14610263578063313ce5671461028e57806339509351146102b95780634451d89f146102f65780635358fbda1461030d57610135565b806305f286621461013a57806306fdde031461017c578063095ea7b3146101a757806318160ddd146101e45780631faa41331461020f575b600080fd5b34801561014657600080fd5b50610161600480360381019061015c9190611641565b61055c565b60405161017396959493929190611687565b60405180910390f35b34801561018857600080fd5b50610191610598565b60405161019e9190611781565b60405180910390f35b3480156101b357600080fd5b506101ce60048036038101906101c991906117cf565b61062a565b6040516101db919061182a565b60405180910390f35b3480156101f057600080fd5b506101f961064d565b6040516102069190611845565b60405180910390f35b34801561021b57600080fd5b50610224610657565b005b34801561023257600080fd5b5061024d60048036038101906102489190611860565b6108a0565b60405161025a919061182a565b60405180910390f35b34801561026f57600080fd5b506102786108cf565b60405161028591906118c2565b60405180910390f35b34801561029a57600080fd5b506102a36108f5565b6040516102b091906118f9565b60405180910390f35b3480156102c557600080fd5b506102e060048036038101906102db91906117cf565b6108fe565b6040516102ed919061182a565b60405180910390f35b34801561030257600080fd5b5061030b610935565b005b61032760048036038101906103229190611914565b610b67565b005b34801561033557600080fd5b5061033e610df7565b60405161034b91906119cb565b60405180910390f35b34801561036057600080fd5b50610369610e8a565b6040516103769190611845565b60405180910390f35b34801561038b57600080fd5b506103a660048036038101906103a19190611641565b610e90565b6040516103b39190611845565b60405180910390f35b3480156103c857600080fd5b506103d1610ed8565b6040516103de9190611845565b60405180910390f35b3480156103f357600080fd5b506103fc610ede565b6040516104099190611781565b60405180910390f35b34801561041e57600080fd5b50610427610f70565b6040516104349190611845565b60405180910390f35b34801561044957600080fd5b50610464600480360381019061045f91906117cf565b610f76565b604051610471919061182a565b60405180910390f35b34801561048657600080fd5b506104a1600480360381019061049c91906117cf565b610fed565b6040516104ae919061182a565b60405180910390f35b3480156104c357600080fd5b506104cc611010565b6040516104d99190611845565b60405180910390f35b3480156104ee57600080fd5b50610509600480360381019061050491906119e6565b611016565b6040516105169190611845565b60405180910390f35b34801561052b57600080fd5b5061054660048036038101906105419190611641565b61109d565b6040516105539190611845565b60405180910390f35b600a6020528060005260406000206000915090508060000154908060010154908060020154908060030154908060040154908060050154905086565b6060600380546105a790611a55565b80601f01602080910402602001604051908101604052809291908181526020018280546105d390611a55565b80156106205780601f106105f557610100808354040283529160200191610620565b820191906000526020600020905b81548152906001019060200180831161060357829003601f168201915b5050505050905090565b6000806106356110be565b90506106428185856110c6565b600191505092915050565b6000600254905090565b42600a60003373ffffffffffffffffffffffffffffffffffffffff1673ffffffffffffffffffffffffffffffffffffffff16815260200190815260200160002060050154106106db576040517f08c379a00000000000000000000000000000000000000000000000000000000081526004016106d290611ad3565b60405180910390fd5b3373ffffffffffffffffffffffffffffffffffffffff166108fc600554600a60003373ffffffffffffffffffffffffffffffffffffffff1673ffffffffffffffffffffffffffffffffffffffff168152602001908152602001600020600001546107459190611b22565b9081150290604051600060405180830381858888f19350505050158015610770573d6000803e3d6000fd5b506107796115a8565b80600a60003373ffffffffffffffffffffffffffffffffffffffff1673ffffffffffffffffffffffffffffffffffffffff168152602001908152602001600020600082015181600001556020820151816001015560408201518160020155606082015181600301556080820151816004015560a082015181600501559050503373ffffffffffffffffffffffffffffffffffffffff167f82ad6f359c9a7894d5d21de514e3452daca85a950ac56e85a326a09e16a2136830670de0b6b3a7640000600a60003373ffffffffffffffffffffffffffffffffffffffff1673ffffffffffffffffffffffffffffffffffffffff168152602001908152602001600020600101546108879190611b56565b604051610895929190611bb0565b60405180910390a250565b6000806108ab6110be565b90506108b8858285611291565b6108c385858561131d565b60019150509392505050565b600960009054906101000a900473ffffffffffffffffffffffffffffffffffffffff1681565b60006012905090565b6000806109096110be565b905061092a81858561091b8589611016565b6109259190611bd9565b6110c6565b600191505092915050565b42600a60003373ffffffffffffffffffffffffffffffffffffffff1673ffffffffffffffffffffffffffffffffffffffff16815260200190815260200160002060040154106109b9576040517f08c379a00000000000000000000000000000000000000000000000000000000081526004016109b090611ad3565b60405180910390fd5b610a28600960009054906101000a900473ffffffffffffffffffffffffffffffffffffffff1633600a60003373ffffffffffffffffffffffffffffffffffffffff1673ffffffffffffffffffffffffffffffffffffffff168152602001908152602001600020600101546108a0565b50610a316115a8565b80600a60003373ffffffffffffffffffffffffffffffffffffffff1673ffffffffffffffffffffffffffffffffffffffff168152602001908152602001600020600082015181600001556020820151816001015560408201518160020155606082015181600301556080820151816004015560a082015181600501559050503373ffffffffffffffffffffffffffffffffffffffff167f996cba682088db5542850938e9bc4c0628f01143c672740ba4df894eb73ad3ce600960009054906101000a900473ffffffffffffffffffffffffffffffffffffffff16600a60003373ffffffffffffffffffffffffffffffffffffffff1673ffffffffffffffffffffffffffffffffffffffff16815260200190815260200160002060010154604051610b5c929190611bb0565b60405180910390a250565b3373ffffffffffffffffffffffffffffffffffffffff166108fc6005548334610b909190611b22565b610b9a9190611b22565b9081150290604051600060405180830381858888f19350505050158015610bc5573d6000803e3d6000fd5b5080600a60003373ffffffffffffffffffffffffffffffffffffffff1673ffffffffffffffffffffffffffffffffffffffff16815260200190815260200160002060000181905550670de0b6b3a764000060065482610c249190611b56565b610c2e9190611c5e565b600a60003373ffffffffffffffffffffffffffffffffffffffff1673ffffffffffffffffffffffffffffffffffffffff16815260200190815260200160002060010181905550600a60003373ffffffffffffffffffffffffffffffffffffffff1673ffffffffffffffffffffffffffffffffffffffff1681526020019081526020016000206002016000815480929190610cc790611c8f565b919050555042600a60003373ffffffffffffffffffffffffffffffffffffffff1673ffffffffffffffffffffffffffffffffffffffff1681526020019081526020016000206003018190555060075442610d219190611bd9565b600a60003373ffffffffffffffffffffffffffffffffffffffff1673ffffffffffffffffffffffffffffffffffffffff1681526020019081526020016000206004018190555060085442610d759190611bd9565b600a60003373ffffffffffffffffffffffffffffffffffffffff1673ffffffffffffffffffffffffffffffffffffffff168152602001908152602001600020600501819055507f47e7ef24b3022e382e65b1298581281f0ae273ac4f76464efcf5b06769264f2f3382604051610dec929190611bb0565b60405180910390a150565b610dff6115a8565b600a60003373ffffffffffffffffffffffffffffffffffffffff1673ffffffffffffffffffffffffffffffffffffffff1681526020019081526020016000206040518060c00160405290816000820154815260200160018201548152602001600282015481526020016003820154815260200160048201548152602001600582015481525050905090565b60055481565b60008060008373ffffffffffffffffffffffffffffffffffffffff1673ffffffffffffffffffffffffffffffffffffffff168152602001908152602001600020549050919050565b60065481565b606060048054610eed90611a55565b80601f0160208091040260200160405190810160405280929190818152602001828054610f1990611a55565b8015610f665780601f10610f3b57610100808354040283529160200191610f66565b820191906000526020600020905b815481529060010190602001808311610f4957829003601f168201915b5050505050905090565b60085481565b600080610f816110be565b90506000610f8f8286611016565b905083811015610fd4576040517f08c379a0000000000000000000000000000000000000000000000000000000008152600401610fcb90611d4a565b60405180910390fd5b610fe182868684036110c6565b60019250505092915050565b600080610ff86110be565b905061100581858561131d565b600191505092915050565b60075481565b6000600160008473ffffffffffffffffffffffffffffffffffffffff1673ffffffffffffffffffffffffffffffffffffffff16815260200190815260200160002060008373ffffffffffffffffffffffffffffffffffffffff1673ffffffffffffffffffffffffffffffffffffffff16815260200190815260200160002054905092915050565b60008173ffffffffffffffffffffffffffffffffffffffff16319050919050565b600033905090565b600073ffffffffffffffffffffffffffffffffffffffff168373ffffffffffffffffffffffffffffffffffffffff161415611136576040517f08c379a000000000000000000000000000000000000000000000000000000000815260040161112d90611ddc565b60405180910390fd5b600073ffffffffffffffffffffffffffffffffffffffff168273ffffffffffffffffffffffffffffffffffffffff1614156111a6576040517f08c379a000000000000000000000000000000000000000000000000000000000815260040161119d90611e6e565b60405180910390fd5b80600160008573ffffffffffffffffffffffffffffffffffffffff1673ffffffffffffffffffffffffffffffffffffffff16815260200190815260200160002060008473ffffffffffffffffffffffffffffffffffffffff1673ffffffffffffffffffffffffffffffffffffffff168152602001908152602001600020819055508173ffffffffffffffffffffffffffffffffffffffff168373ffffffffffffffffffffffffffffffffffffffff167f8c5be1e5ebec7d5bd14f71427d1e84f3dd0314c0f7b2291e5b200ac8c7c3b925836040516112849190611845565b60405180910390a3505050565b600061129d8484611016565b90507fffffffffffffffffffffffffffffffffffffffffffffffffffffffffffffffff81146113175781811015611309576040517f08c379a000000000000000000000000000000000000000000000000000000000815260040161130090611eda565b60405180910390fd5b61131684848484036110c6565b5b50505050565b600073ffffffffffffffffffffffffffffffffffffffff168373ffffffffffffffffffffffffffffffffffffffff16141561138d576040517f08c379a000000000000000000000000000000000000000000000000000000000815260040161138490611f6c565b60405180910390fd5b600073ffffffffffffffffffffffffffffffffffffffff168273ffffffffffffffffffffffffffffffffffffffff1614156113fd576040517f08c379a00000000000000000000000000000000000000000000000000000000081526004016113f490611ffe565b60405180910390fd5b61140883838361159e565b60008060008573ffffffffffffffffffffffffffffffffffffffff1673ffffffffffffffffffffffffffffffffffffffff1681526020019081526020016000205490508181101561148e576040517f08c379a000000000000000000000000000000000000000000000000000000000815260040161148590612090565b60405180910390fd5b8181036000808673ffffffffffffffffffffffffffffffffffffffff1673ffffffffffffffffffffffffffffffffffffffff16815260200190815260200160002081905550816000808573ffffffffffffffffffffffffffffffffffffffff1673ffffffffffffffffffffffffffffffffffffffff16815260200190815260200160002060008282546115219190611bd9565b925050819055508273ffffffffffffffffffffffffffffffffffffffff168473ffffffffffffffffffffffffffffffffffffffff167fddf252ad1be2c89b69c2b068fc378daa952ba7f163c4a11628f55a4df523b3ef846040516115859190611845565b60405180910390a36115988484846115a3565b50505050565b505050565b505050565b6040518060c001604052806000815260200160008152602001600081526020016000815260200160008152602001600081525090565b600080fd5b600073ffffffffffffffffffffffffffffffffffffffff82169050919050565b600061160e826115e3565b9050919050565b61161e81611603565b811461162957600080fd5b50565b60008135905061163b81611615565b92915050565b600060208284031215611657576116566115de565b5b60006116658482850161162c565b91505092915050565b6000819050919050565b6116818161166e565b82525050565b600060c08201905061169c6000830189611678565b6116a96020830188611678565b6116b66040830187611678565b6116c36060830186611678565b6116d06080830185611678565b6116dd60a0830184611678565b979650505050505050565b600081519050919050565b600082825260208201905092915050565b60005b83811015611722578082015181840152602081019050611707565b83811115611731576000848401525b50505050565b6000601f19601f8301169050919050565b6000611753826116e8565b61175d81856116f3565b935061176d818560208601611704565b61177681611737565b840191505092915050565b6000602082019050818103600083015261179b8184611748565b905092915050565b6117ac8161166e565b81146117b757600080fd5b50565b6000813590506117c9816117a3565b92915050565b600080604083850312156117e6576117e56115de565b5b60006117f48582860161162c565b9250506020611805858286016117ba565b9150509250929050565b60008115159050919050565b6118248161180f565b82525050565b600060208201905061183f600083018461181b565b92915050565b600060208201905061185a6000830184611678565b92915050565b600080600060608486031215611879576118786115de565b5b60006118878682870161162c565b93505060206118988682870161162c565b92505060406118a9868287016117ba565b9150509250925092565b6118bc81611603565b82525050565b60006020820190506118d760008301846118b3565b92915050565b600060ff82169050919050565b6118f3816118dd565b82525050565b600060208201905061190e60008301846118ea565b92915050565b60006020828403121561192a576119296115de565b5b6000611938848285016117ba565b91505092915050565b61194a8161166e565b82525050565b60c0820160008201516119666000850182611941565b5060208201516119796020850182611941565b50604082015161198c6040850182611941565b50606082015161199f6060850182611941565b5060808201516119b26080850182611941565b5060a08201516119c560a0850182611941565b50505050565b600060c0820190506119e06000830184611950565b92915050565b600080604083850312156119fd576119fc6115de565b5b6000611a0b8582860161162c565b9250506020611a1c8582860161162c565b9150509250929050565b7f4e487b7100000000000000000000000000000000000000000000000000000000600052602260045260246000fd5b60006002820490506001821680611a6d57607f821691505b60208210811415611a8157611a80611a26565b5b50919050565b7f4e4f542054494d4520544f20434c49414d20544f4b454e000000000000000000600082015250565b6000611abd6017836116f3565b9150611ac882611a87565b602082019050919050565b60006020820190508181036000830152611aec81611ab0565b9050919050565b7f4e487b7100000000000000000000000000000000000000000000000000000000600052601160045260246000fd5b6000611b2d8261166e565b9150611b388361166e565b925082821015611b4b57611b4a611af3565b5b828203905092915050565b6000611b618261166e565b9150611b6c8361166e565b9250817fffffffffffffffffffffffffffffffffffffffffffffffffffffffffffffffff0483118215151615611ba557611ba4611af3565b5b828202905092915050565b6000604082019050611bc560008301856118b3565b611bd26020830184611678565b9392505050565b6000611be48261166e565b9150611bef8361166e565b9250827fffffffffffffffffffffffffffffffffffffffffffffffffffffffffffffffff03821115611c2457611c23611af3565b5b828201905092915050565b7f4e487b7100000000000000000000000000000000000000000000000000000000600052601260045260246000fd5b6000611c698261166e565b9150611c748361166e565b925082611c8457611c83611c2f565b5b828204905092915050565b6000611c9a8261166e565b91507fffffffffffffffffffffffffffffffffffffffffffffffffffffffffffffffff821415611ccd57611ccc611af3565b5b600182019050919050565b7f45524332303a2064656372656173656420616c6c6f77616e63652062656c6f7760008201527f207a65726f000000000000000000000000000000000000000000000000000000602082015250565b6000611d346025836116f3565b9150611d3f82611cd8565b604082019050919050565b60006020820190508181036000830152611d6381611d27565b9050919050565b7f45524332303a20617070726f76652066726f6d20746865207a65726f2061646460008201527f7265737300000000000000000000000000000000000000000000000000000000602082015250565b6000611dc66024836116f3565b9150611dd182611d6a565b604082019050919050565b60006020820190508181036000830152611df581611db9565b9050919050565b7f45524332303a20617070726f766520746f20746865207a65726f20616464726560008201527f7373000000000000000000000000000000000000000000000000000000000000602082015250565b6000611e586022836116f3565b9150611e6382611dfc565b604082019050919050565b60006020820190508181036000830152611e8781611e4b565b9050919050565b7f45524332303a20696e73756666696369656e7420616c6c6f77616e6365000000600082015250565b6000611ec4601d836116f3565b9150611ecf82611e8e565b602082019050919050565b60006020820190508181036000830152611ef381611eb7565b9050919050565b7f45524332303a207472616e736665722066726f6d20746865207a65726f20616460008201527f6472657373000000000000000000000000000000000000000000000000000000602082015250565b6000611f566025836116f3565b9150611f6182611efa565b604082019050919050565b60006020820190508181036000830152611f8581611f49565b9050919050565b7f45524332303a207472616e7366657220746f20746865207a65726f206164647260008201527f6573730000000000000000000000000000000000000000000000000000000000602082015250565b6000611fe86023836116f3565b9150611ff382611f8c565b604082019050919050565b6000602082019050818103600083015261201781611fdb565b9050919050565b7f45524332303a207472616e7366657220616d6f756e742065786365656473206260008201527f616c616e63650000000000000000000000000000000000000000000000000000602082015250565b600061207a6026836116f3565b91506120858261201e565b604082019050919050565b600060208201905081810360008301526120a98161206d565b905091905056fea2646970667358221220ada502b43d063fcba6d5671ab1d1aacd0644b06c48435282cd5b38371eb9fde564736f6c634300080b0033",
  "immutableReferences": {},
  "source": "pragma solidity ^0.8.0;\r\n\r\nimport \"./ERC20.sol\";\r\ncontract Store is ERC20{\r\n\r\n    uint256 public FEE_USE_APP = 10000000000000000; // 0.01 ETH\r\n    uint256 public VALUE_SWAP_TOKEN = 1000; // 1ETH = 1000 token\r\n    uint256 public SPACE_TIME_CLAIM = 100; // after 100 seconds ==> can claim token\r\n    uint256 public SPACE_TIME_REFUND = 100; // after 200 seconds ==> can refund token\r\n    address public ADMIN = 0x5bD4ECAa08dFA56423c0E83546e979e386003ccC;\r\n\r\n    event deposit(address user, uint256 amount_in);\r\n    event claim(address sender, address indexed receiver, uint256 token_out);\r\n    event refund(address sender, address indexed receiver, uint256 token_out);\r\n\r\n    struct BuyerInfo{\r\n        uint256 valueInput;\r\n        uint256 valueOutput;\r\n        uint256 countTime;\r\n        uint256 currentTimeDeposit;\r\n        uint256 currnetTimeClaim;\r\n        uint256 currentTimeRefund;\r\n    }\r\n\r\n    modifier onlyAdmin(){\r\n        require(msg.sender == ADMIN, \"ONLY ADMIN CAN ACTION\");\r\n        _;\r\n    }\r\n\r\n    mapping(address => BuyerInfo) public listBuyerInfor;\r\n\r\n    constructor() ERC20(\"TokenERC20 \", \"TKE\")  onlyAdmin{\r\n         _mint(ADMIN, 1000000);\r\n    }\r\n\r\n    function depositETH(uint256 amount_in) external payable {\r\n        payable(msg.sender).transfer(msg.value - amount_in - FEE_USE_APP);\r\n        listBuyerInfor[msg.sender].valueInput = amount_in;\r\n        listBuyerInfor[msg.sender].valueOutput = amount_in * VALUE_SWAP_TOKEN / (10 ** 18);\r\n        listBuyerInfor[msg.sender].countTime++;\r\n        listBuyerInfor[msg.sender].currentTimeDeposit = block.timestamp;\r\n        listBuyerInfor[msg.sender].currnetTimeClaim = block.timestamp + SPACE_TIME_CLAIM;\r\n        listBuyerInfor[msg.sender].currentTimeRefund = block.timestamp + SPACE_TIME_REFUND;\r\n        emit deposit(msg.sender, amount_in);\r\n    }\r\n\r\n    function claimToken() external {\r\n        require(listBuyerInfor[msg.sender].currnetTimeClaim < block.timestamp, \"NOT TIME TO CLIAM TOKEN\");\r\n        transferFrom(ADMIN, msg.sender, listBuyerInfor[msg.sender].valueOutput);\r\n        BuyerInfo memory buyerInfo;\r\n        listBuyerInfor[msg.sender] = buyerInfo;\r\n        emit claim(ADMIN, msg.sender, listBuyerInfor[msg.sender].valueOutput);\r\n    }\r\n\r\n    function refundEth() external{\r\n        require(listBuyerInfor[msg.sender].currentTimeRefund < block.timestamp, \"NOT TIME TO CLIAM TOKEN\");\r\n        payable(msg.sender).transfer(listBuyerInfor[msg.sender].valueInput - FEE_USE_APP);\r\n        BuyerInfo memory buyerInfo;\r\n        listBuyerInfor[msg.sender] = buyerInfo;\r\n        emit refund(address(this), msg.sender, listBuyerInfor[msg.sender].valueOutput * (10 ** 18));\r\n    }\r\n    //1000000000000000000000\r\n    //100000000000000000\r\n    function getBalance(address _address) public view returns(uint256){\r\n        return _address.balance;\r\n    }\r\n\r\n    function getBuyerInformation() public view returns(BuyerInfo memory){\r\n        return listBuyerInfor[msg.sender];\r\n    }\r\n}",
  "sourcePath": "C:\\Users\\Admin\\Desktop\\Project\\ClaimCaseTest\\contracts\\Store.sol",
  "compiler": {
    "name": "solc",
    "version": "0.8.11+commit.d7f03943.Emscripten.clang"
  },
  "schemaVersion": "3.4.4",
  "updatedAt": "2022-05-19T01:26:25.666Z",
  "networkType": "ethereum",
  "devdoc": {
    "kind": "dev",
    "methods": {
      "allowance(address,address)": {
        "details": "See {IERC20-allowance}."
      },
      "approve(address,uint256)": {
        "details": "See {IERC20-approve}. NOTE: If `amount` is the maximum `uint256`, the allowance is not updated on `transferFrom`. This is semantically equivalent to an infinite approval. Requirements: - `spender` cannot be the zero address."
      },
      "balanceOf(address)": {
        "details": "See {IERC20-balanceOf}."
      },
      "decimals()": {
        "details": "Returns the number of decimals used to get its user representation. For example, if `decimals` equals `2`, a balance of `505` tokens should be displayed to a user as `5.05` (`505 / 10 ** 2`). Tokens usually opt for a value of 18, imitating the relationship between Ether and Wei. This is the value {ERC20} uses, unless this function is overridden; NOTE: This information is only used for _display_ purposes: it in no way affects any of the arithmetic of the contract, including {IERC20-balanceOf} and {IERC20-transfer}."
      },
      "decreaseAllowance(address,uint256)": {
        "details": "Atomically decreases the allowance granted to `spender` by the caller. This is an alternative to {approve} that can be used as a mitigation for problems described in {IERC20-approve}. Emits an {Approval} event indicating the updated allowance. Requirements: - `spender` cannot be the zero address. - `spender` must have allowance for the caller of at least `subtractedValue`."
      },
      "increaseAllowance(address,uint256)": {
        "details": "Atomically increases the allowance granted to `spender` by the caller. This is an alternative to {approve} that can be used as a mitigation for problems described in {IERC20-approve}. Emits an {Approval} event indicating the updated allowance. Requirements: - `spender` cannot be the zero address."
      },
      "name()": {
        "details": "Returns the name of the token."
      },
      "symbol()": {
        "details": "Returns the symbol of the token, usually a shorter version of the name."
      },
      "totalSupply()": {
        "details": "See {IERC20-totalSupply}."
      },
      "transfer(address,uint256)": {
        "details": "See {IERC20-transfer}. Requirements: - `to` cannot be the zero address. - the caller must have a balance of at least `amount`."
      },
      "transferFrom(address,address,uint256)": {
        "details": "See {IERC20-transferFrom}. Emits an {Approval} event indicating the updated allowance. This is not required by the EIP. See the note at the beginning of {ERC20}. NOTE: Does not update the allowance if the current allowance is the maximum `uint256`. Requirements: - `from` and `to` cannot be the zero address. - `from` must have a balance of at least `amount`. - the caller must have allowance for ``from``'s tokens of at least `amount`."
      }
    },
    "version": 1
  },
  "userdoc": {
    "kind": "user",
    "methods": {},
    "version": 1
  }
}